{
  "contractName": "Agent",
  "abi": [
    {
      "inputs": [
        {
          "internalType": "uint256",
          "name": "",
          "type": "uint256"
        }
      ],
      "name": "doctorList",
      "outputs": [
        {
          "internalType": "address",
          "name": "",
          "type": "address"
        }
      ],
      "stateMutability": "view",
      "type": "function",
      "constant": true
    },
    {
      "inputs": [
        {
          "internalType": "uint256",
          "name": "",
          "type": "uint256"
        }
      ],
      "name": "patientList",
      "outputs": [
        {
          "internalType": "address",
          "name": "",
          "type": "address"
        }
      ],
      "stateMutability": "view",
      "type": "function",
      "constant": true
    },
    {
      "inputs": [
        {
          "internalType": "string",
          "name": "_name",
          "type": "string"
        },
        {
          "internalType": "uint256",
          "name": "_age",
          "type": "uint256"
        },
        {
          "internalType": "uint256",
          "name": "_designation",
          "type": "uint256"
        },
        {
          "internalType": "string",
          "name": "_hash",
          "type": "string"
        }
      ],
      "name": "add_agent",
      "outputs": [
        {
          "internalType": "string",
          "name": "",
          "type": "string"
        }
      ],
      "stateMutability": "nonpayable",
      "type": "function"
    },
    {
      "inputs": [
        {
          "internalType": "address",
          "name": "addr",
          "type": "address"
        }
      ],
      "name": "get_patient",
      "outputs": [
        {
          "internalType": "string",
          "name": "",
          "type": "string"
        },
        {
          "internalType": "uint256",
          "name": "",
          "type": "uint256"
        },
        {
          "internalType": "uint256[]",
          "name": "",
          "type": "uint256[]"
        },
        {
          "internalType": "address",
          "name": "",
          "type": "address"
        },
        {
          "internalType": "string",
          "name": "",
          "type": "string"
        }
      ],
      "stateMutability": "view",
      "type": "function",
      "constant": true
    },
    {
      "inputs": [
        {
          "internalType": "address",
          "name": "addr",
          "type": "address"
        }
      ],
      "name": "get_doctor",
      "outputs": [
        {
          "internalType": "string",
          "name": "",
          "type": "string"
        },
        {
          "internalType": "uint256",
          "name": "",
          "type": "uint256"
        }
      ],
      "stateMutability": "view",
      "type": "function",
      "constant": true
    },
    {
      "inputs": [
        {
          "internalType": "address",
          "name": "paddr",
          "type": "address"
        },
        {
          "internalType": "address",
          "name": "daddr",
          "type": "address"
        }
      ],
      "name": "get_patient_doctor_name",
      "outputs": [
        {
          "internalType": "string",
          "name": "",
          "type": "string"
        },
        {
          "internalType": "string",
          "name": "",
          "type": "string"
        }
      ],
      "stateMutability": "view",
      "type": "function",
      "constant": true
    },
    {
      "inputs": [
        {
          "internalType": "address",
          "name": "addr",
          "type": "address"
        }
      ],
      "name": "permit_access",
      "outputs": [],
      "stateMutability": "payable",
      "type": "function",
      "payable": true
    },
    {
      "inputs": [
        {
          "internalType": "address",
          "name": "paddr",
          "type": "address"
        },
        {
          "internalType": "uint256",
          "name": "_diagnosis",
          "type": "uint256"
        },
        {
          "internalType": "string",
          "name": "_hash",
          "type": "string"
        }
      ],
      "name": "insurance_claim",
      "outputs": [],
      "stateMutability": "nonpayable",
      "type": "function"
    },
    {
      "inputs": [
        {
          "internalType": "address",
          "name": "paddr",
          "type": "address"
        },
        {
          "internalType": "address",
          "name": "daddr",
          "type": "address"
        }
      ],
      "name": "remove_patient",
      "outputs": [],
      "stateMutability": "nonpayable",
      "type": "function"
    },
    {
      "inputs": [
        {
          "internalType": "address",
          "name": "addr",
          "type": "address"
        }
      ],
      "name": "get_accessed_doctorlist_for_patient",
      "outputs": [
        {
          "internalType": "address[]",
          "name": "",
          "type": "address[]"
        }
      ],
      "stateMutability": "view",
      "type": "function",
      "constant": true
    },
    {
      "inputs": [
        {
          "internalType": "address",
          "name": "addr",
          "type": "address"
        }
      ],
      "name": "get_accessed_patientlist_for_doctor",
      "outputs": [
        {
          "internalType": "address[]",
          "name": "",
          "type": "address[]"
        }
      ],
      "stateMutability": "view",
      "type": "function",
      "constant": true
    },
    {
      "inputs": [
        {
          "internalType": "address",
          "name": "daddr",
          "type": "address"
        }
      ],
      "name": "revoke_access",
      "outputs": [],
      "stateMutability": "payable",
      "type": "function",
      "payable": true
    },
    {
      "inputs": [],
      "name": "get_patient_list",
      "outputs": [
        {
          "internalType": "address[]",
          "name": "",
          "type": "address[]"
        }
      ],
      "stateMutability": "view",
      "type": "function",
      "constant": true
    },
    {
      "inputs": [],
      "name": "get_doctor_list",
      "outputs": [
        {
          "internalType": "address[]",
          "name": "",
          "type": "address[]"
        }
      ],
      "stateMutability": "view",
      "type": "function",
      "constant": true
    },
    {
      "inputs": [
        {
          "internalType": "address",
          "name": "paddr",
          "type": "address"
        }
      ],
      "name": "get_hash",
      "outputs": [
        {
          "internalType": "string",
          "name": "",
          "type": "string"
        }
      ],
      "stateMutability": "view",
      "type": "function",
      "constant": true
    }
  ],
  "bytecode": "0x608060405234801561001057600080fd5b5061241a806100206000396000f3fe6080604052600436106100e75760003560e01c80637e1519ce1161008a578063dd44176b11610059578063dd44176b14610329578063e81ac05414610366578063f02d90a414610391578063f24be9e7146103ce576100e7565b80637e1519ce14610268578063babb1d41146102a5578063bcffb7ca146102e2578063c39e9635146102fe576100e7565b80631e3fc3b8116100c65780631e3fc3b81461018f57806327b1dcee146101cd5780634042d2d4146101e957806356c98c481461022a576100e7565b80627ee3ce146100ec5780630362fe9b14610129578063127ca4b414610152575b600080fd5b3480156100f857600080fd5b50610113600480360381019061010e919061195e565b6103f7565b6040516101209190611a49565b60405180910390f35b34801561013557600080fd5b50610150600480360381019061014b9190611a6b565b6104cd565b005b34801561015e57600080fd5b5061017960048036038101906101749190611ae1565b610567565b6040516101869190611b1d565b60405180910390f35b34801561019b57600080fd5b506101b660048036038101906101b19190611a6b565b6105a6565b6040516101c4929190611bc8565b60405180910390f35b6101e760048036038101906101e2919061195e565b610750565b005b3480156101f557600080fd5b50610210600480360381019061020b919061195e565b6107c5565b604051610221959493929190611ccc565b60405180910390f35b34801561023657600080fd5b50610251600480360381019061024c919061195e565b610ab5565b60405161025f929190611d34565b60405180910390f35b34801561027457600080fd5b5061028f600480360381019061028a919061195e565b610bd3565b60405161029c9190611d64565b60405180910390f35b3480156102b157600080fd5b506102cc60048036038101906102c79190611ae1565b610ca7565b6040516102d99190611b1d565b60405180910390f35b6102fc60048036038101906102f7919061195e565b610ce6565b005b34801561030a57600080fd5b50610313610e5c565b6040516103209190611a49565b60405180910390f35b34801561033557600080fd5b50610350600480360381019061034b919061195e565b610eea565b60405161035d9190611a49565b60405180910390f35b34801561037257600080fd5b5061037b610fba565b6040516103889190611a49565b60405180910390f35b34801561039d57600080fd5b506103b860048036038101906103b39190611ebb565b611048565b6040516103c59190611d64565b60405180910390f35b3480156103da57600080fd5b506103f560048036038101906103f09190611f5a565b6112b3565b005b60606000600360008473ffffffffffffffffffffffffffffffffffffffff1673ffffffffffffffffffffffffffffffffffffffff1681526020019081526020016000206002019050808054806020026020016040519081016040528092919081815260200182805480156104c057602002820191906000526020600020905b8160009054906101000a900473ffffffffffffffffffffffffffffffffffffffff1673ffffffffffffffffffffffffffffffffffffffff1681526020019060010190808311610476575b5050505050915050919050565b610518600460008373ffffffffffffffffffffffffffffffffffffffff1673ffffffffffffffffffffffffffffffffffffffff16815260200190815260200160002060020183611536565b610563600360008473ffffffffffffffffffffffffffffffffffffffff1673ffffffffffffffffffffffffffffffffffffffff16815260200190815260200160002060020182611536565b5050565b6002818154811061057757600080fd5b906000526020600020016000915054906101000a900473ffffffffffffffffffffffffffffffffffffffff1681565b606080600360008573ffffffffffffffffffffffffffffffffffffffff1673ffffffffffffffffffffffffffffffffffffffff168152602001908152602001600020600001600460008573ffffffffffffffffffffffffffffffffffffffff1673ffffffffffffffffffffffffffffffffffffffff16815260200190815260200160002060000181805461063990611ff8565b80601f016020809104026020016040519081016040528092919081815260200182805461066590611ff8565b80156106b25780601f10610687576101008083540402835291602001916106b2565b820191906000526020600020905b81548152906001019060200180831161069557829003601f168201915b505050505091508080546106c590611ff8565b80601f01602080910402602001604051908101604052809291908181526020018280546106f190611ff8565b801561073e5780601f106107135761010080835404028352916020019161073e565b820191906000526020600020905b81548152906001019060200180831161072157829003601f168201915b50505050509050915091509250929050565b61075a33826104cd565b3373ffffffffffffffffffffffffffffffffffffffff166108fc671bc16d674ec800009081150290604051600060405180830381858888f193505050501580156107a8573d6000803e3d6000fd5b5060026000808282546107bb9190612058565b9250508190555050565b60606000606060006060600360008773ffffffffffffffffffffffffffffffffffffffff1673ffffffffffffffffffffffffffffffffffffffff168152602001908152602001600020600001600360008873ffffffffffffffffffffffffffffffffffffffff1673ffffffffffffffffffffffffffffffffffffffff16815260200190815260200160002060010154600360008973ffffffffffffffffffffffffffffffffffffffff1673ffffffffffffffffffffffffffffffffffffffff168152602001908152602001600020600301600560008a73ffffffffffffffffffffffffffffffffffffffff1673ffffffffffffffffffffffffffffffffffffffff16815260200190815260200160002060009054906101000a900473ffffffffffffffffffffffffffffffffffffffff16600360008b73ffffffffffffffffffffffffffffffffffffffff1673ffffffffffffffffffffffffffffffffffffffff16815260200190815260200160002060040184805461094490611ff8565b80601f016020809104026020016040519081016040528092919081815260200182805461097090611ff8565b80156109bd5780601f10610992576101008083540402835291602001916109bd565b820191906000526020600020905b8154815290600101906020018083116109a057829003601f168201915b5050505050945082805480602002602001604051908101604052809291908181526020018280548015610a0f57602002820191906000526020600020905b8154815260200190600101908083116109fb575b50505050509250808054610a2290611ff8565b80601f0160208091040260200160405190810160405280929190818152602001828054610a4e90611ff8565b8015610a9b5780601f10610a7057610100808354040283529160200191610a9b565b820191906000526020600020905b815481529060010190602001808311610a7e57829003601f168201915b505050505090509450945094509450945091939590929450565b60606000600460008473ffffffffffffffffffffffffffffffffffffffff1673ffffffffffffffffffffffffffffffffffffffff168152602001908152602001600020600001600460008573ffffffffffffffffffffffffffffffffffffffff1673ffffffffffffffffffffffffffffffffffffffff16815260200190815260200160002060010154818054610b4a90611ff8565b80601f0160208091040260200160405190810160405280929190818152602001828054610b7690611ff8565b8015610bc35780601f10610b9857610100808354040283529160200191610bc3565b820191906000526020600020905b815481529060010190602001808311610ba657829003601f168201915b5050505050915091509150915091565b6060600360008373ffffffffffffffffffffffffffffffffffffffff1673ffffffffffffffffffffffffffffffffffffffff1681526020019081526020016000206004018054610c2290611ff8565b80601f0160208091040260200160405190810160405280929190818152602001828054610c4e90611ff8565b8015610c9b5780601f10610c7057610100808354040283529160200191610c9b565b820191906000526020600020905b815481529060010190602001808311610c7e57829003601f168201915b50505050509050919050565b60018181548110610cb757600080fd5b906000526020600020016000915054906101000a900473ffffffffffffffffffffffffffffffffffffffff1681565b671bc16d674ec800003414610cfa57600080fd5b6002600080828254610d0c919061208c565b92505081905550600460008273ffffffffffffffffffffffffffffffffffffffff1673ffffffffffffffffffffffffffffffffffffffff168152602001908152602001600020600201339080600181540180825580915050600190039060005260206000200160009091909190916101000a81548173ffffffffffffffffffffffffffffffffffffffff021916908373ffffffffffffffffffffffffffffffffffffffff160217905550600360003373ffffffffffffffffffffffffffffffffffffffff1673ffffffffffffffffffffffffffffffffffffffff168152602001908152602001600020600201819080600181540180825580915050600190039060005260206000200160009091909190916101000a81548173ffffffffffffffffffffffffffffffffffffffff021916908373ffffffffffffffffffffffffffffffffffffffff16021790555050565b60606002805480602002602001604051908101604052809291908181526020018280548015610ee057602002820191906000526020600020905b8160009054906101000a900473ffffffffffffffffffffffffffffffffffffffff1673ffffffffffffffffffffffffffffffffffffffff1681526020019060010190808311610e96575b5050505050905090565b6060600460008373ffffffffffffffffffffffffffffffffffffffff1673ffffffffffffffffffffffffffffffffffffffff168152602001908152602001600020600201805480602002602001604051908101604052809291908181526020018280548015610fae57602002820191906000526020600020905b8160009054906101000a900473ffffffffffffffffffffffffffffffffffffffff1673ffffffffffffffffffffffffffffffffffffffff1681526020019060010190808311610f64575b50505050509050919050565b6060600180548060200260200160405190810160405280929190818152602001828054801561103e57602002820191906000526020600020905b8160009054906101000a900473ffffffffffffffffffffffffffffffffffffffff1673ffffffffffffffffffffffffffffffffffffffff1681526020019060010190808311610ff4575b5050505050905090565b606060003390506000840361119b5761105f6117c9565b8681600001819052508581602001818152505083816080018190525080600360003373ffffffffffffffffffffffffffffffffffffffff1673ffffffffffffffffffffffffffffffffffffffff16815260200190815260200160002060008201518160000190816110d0919061226c565b506020820151816001015560408201518160020190805190602001906110f79291906117f8565b506060820151816003019080519060200190611114929190611882565b50608082015181600401908161112a919061226c565b509050506001829080600181540180825580915050600190039060005260206000200160009091909190916101000a81548173ffffffffffffffffffffffffffffffffffffffff021916908373ffffffffffffffffffffffffffffffffffffffff16021790555086925050506112ab565b600184036112a65785600460008373ffffffffffffffffffffffffffffffffffffffff1673ffffffffffffffffffffffffffffffffffffffff16815260200190815260200160002060000190816111f2919061226c565b5084600460008373ffffffffffffffffffffffffffffffffffffffff1673ffffffffffffffffffffffffffffffffffffffff168152602001908152602001600020600101819055506002819080600181540180825580915050600190039060005260206000200160009091909190916101000a81548173ffffffffffffffffffffffffffffffffffffffff021916908373ffffffffffffffffffffffffffffffffffffffff160217905550859150506112ab565b600080fd5b949350505050565b6000805b600460003373ffffffffffffffffffffffffffffffffffffffff1673ffffffffffffffffffffffffffffffffffffffff16815260200190815260200160002060020180549050811015611435578473ffffffffffffffffffffffffffffffffffffffff16600460003373ffffffffffffffffffffffffffffffffffffffff1673ffffffffffffffffffffffffffffffffffffffff168152602001908152602001600020600201828154811061136f5761136e61233e565b5b9060005260206000200160009054906101000a900473ffffffffffffffffffffffffffffffffffffffff1673ffffffffffffffffffffffffffffffffffffffff1603611422573373ffffffffffffffffffffffffffffffffffffffff166108fc671bc16d674ec800009081150290604051600060405180830381858888f19350505050158015611403573d6000803e3d6000fd5b5060026000808282546114169190612058565b92505081905550600191505b808061142d9061236d565b9150506112b7565b50600115158115150361145b5761144c8483611775565b61145684336104cd565b611460565b600080fd5b6000805b600360008773ffffffffffffffffffffffffffffffffffffffff1673ffffffffffffffffffffffffffffffffffffffff1681526020019081526020016000206003018054905081101561152e5784600360008873ffffffffffffffffffffffffffffffffffffffff1673ffffffffffffffffffffffffffffffffffffffff16815260200190815260200160002060030182815481106115065761150561233e565b5b90600052602060002001540361151b57600191505b80806115269061236d565b915050611464565b505050505050565b60008060005b84805490508110156115d3578373ffffffffffffffffffffffffffffffffffffffff168582815481106115725761157161233e565b5b9060005260206000200160009054906101000a900473ffffffffffffffffffffffffffffffffffffffff1673ffffffffffffffffffffffffffffffffffffffff16036115c057600192508091505b80806115cb9061236d565b91505061153c565b50816115de57600080fd5b600184805490500361162f578381815481106115fd576115fc61233e565b5b9060005260206000200160006101000a81549073ffffffffffffffffffffffffffffffffffffffff0219169055611729565b83600185805490506116419190612058565b815481106116525761165161233e565b5b9060005260206000200160009054906101000a900473ffffffffffffffffffffffffffffffffffffffff168482815481106116905761168f61233e565b5b9060005260206000200160006101000a81548173ffffffffffffffffffffffffffffffffffffffff021916908373ffffffffffffffffffffffffffffffffffffffff16021790555083600185805490506116ea9190612058565b815481106116fb576116fa61233e565b5b9060005260206000200160006101000a81549073ffffffffffffffffffffffffffffffffffffffff02191690555b8380548061173a576117396123b5565b5b6001900381819060005260206000200160006101000a81549073ffffffffffffffffffffffffffffffffffffffff0219169055905550505050565b80600360008473ffffffffffffffffffffffffffffffffffffffff1673ffffffffffffffffffffffffffffffffffffffff16815260200190815260200160002060040190816117c4919061226c565b505050565b6040518060a0016040528060608152602001600081526020016060815260200160608152602001606081525090565b828054828255906000526020600020908101928215611871579160200282015b828111156118705782518260006101000a81548173ffffffffffffffffffffffffffffffffffffffff021916908373ffffffffffffffffffffffffffffffffffffffff16021790555091602001919060010190611818565b5b50905061187e91906118cf565b5090565b8280548282559060005260206000209081019282156118be579160200282015b828111156118bd5782518255916020019190600101906118a2565b5b5090506118cb91906118cf565b5090565b5b808211156118e85760008160009055506001016118d0565b5090565b6000604051905090565b600080fd5b600080fd5b600073ffffffffffffffffffffffffffffffffffffffff82169050919050565b600061192b82611900565b9050919050565b61193b81611920565b811461194657600080fd5b50565b60008135905061195881611932565b92915050565b600060208284031215611974576119736118f6565b5b600061198284828501611949565b91505092915050565b600081519050919050565b600082825260208201905092915050565b6000819050602082019050919050565b6119c081611920565b82525050565b60006119d283836119b7565b60208301905092915050565b6000602082019050919050565b60006119f68261198b565b611a008185611996565b9350611a0b836119a7565b8060005b83811015611a3c578151611a2388826119c6565b9750611a2e836119de565b925050600181019050611a0f565b5085935050505092915050565b60006020820190508181036000830152611a6381846119eb565b905092915050565b60008060408385031215611a8257611a816118f6565b5b6000611a9085828601611949565b9250506020611aa185828601611949565b9150509250929050565b6000819050919050565b611abe81611aab565b8114611ac957600080fd5b50565b600081359050611adb81611ab5565b92915050565b600060208284031215611af757611af66118f6565b5b6000611b0584828501611acc565b91505092915050565b611b1781611920565b82525050565b6000602082019050611b326000830184611b0e565b92915050565b600081519050919050565b600082825260208201905092915050565b60005b83811015611b72578082015181840152602081019050611b57565b60008484015250505050565b6000601f19601f8301169050919050565b6000611b9a82611b38565b611ba48185611b43565b9350611bb4818560208601611b54565b611bbd81611b7e565b840191505092915050565b60006040820190508181036000830152611be28185611b8f565b90508181036020830152611bf68184611b8f565b90509392505050565b611c0881611aab565b82525050565b600081519050919050565b600082825260208201905092915050565b6000819050602082019050919050565b611c4381611aab565b82525050565b6000611c558383611c3a565b60208301905092915050565b6000602082019050919050565b6000611c7982611c0e565b611c838185611c19565b9350611c8e83611c2a565b8060005b83811015611cbf578151611ca68882611c49565b9750611cb183611c61565b925050600181019050611c92565b5085935050505092915050565b600060a0820190508181036000830152611ce68188611b8f565b9050611cf56020830187611bff565b8181036040830152611d078186611c6e565b9050611d166060830185611b0e565b8181036080830152611d288184611b8f565b90509695505050505050565b60006040820190508181036000830152611d4e8185611b8f565b9050611d5d6020830184611bff565b9392505050565b60006020820190508181036000830152611d7e8184611b8f565b905092915050565b600080fd5b600080fd5b7f4e487b7100000000000000000000000000000000000000000000000000000000600052604160045260246000fd5b611dc882611b7e565b810181811067ffffffffffffffff82111715611de757611de6611d90565b5b80604052505050565b6000611dfa6118ec565b9050611e068282611dbf565b919050565b600067ffffffffffffffff821115611e2657611e25611d90565b5b611e2f82611b7e565b9050602081019050919050565b82818337600083830152505050565b6000611e5e611e5984611e0b565b611df0565b905082815260208101848484011115611e7a57611e79611d8b565b5b611e85848285611e3c565b509392505050565b600082601f830112611ea257611ea1611d86565b5b8135611eb2848260208601611e4b565b91505092915050565b60008060008060808587031215611ed557611ed46118f6565b5b600085013567ffffffffffffffff811115611ef357611ef26118fb565b5b611eff87828801611e8d565b9450506020611f1087828801611acc565b9350506040611f2187828801611acc565b925050606085013567ffffffffffffffff811115611f4257611f416118fb565b5b611f4e87828801611e8d565b91505092959194509250565b600080600060608486031215611f7357611f726118f6565b5b6000611f8186828701611949565b9350506020611f9286828701611acc565b925050604084013567ffffffffffffffff811115611fb357611fb26118fb565b5b611fbf86828701611e8d565b9150509250925092565b7f4e487b7100000000000000000000000000000000000000000000000000000000600052602260045260246000fd5b6000600282049050600182168061201057607f821691505b60208210810361202357612022611fc9565b5b50919050565b7f4e487b7100000000000000000000000000000000000000000000000000000000600052601160045260246000fd5b600061206382611aab565b915061206e83611aab565b925082820390508181111561208657612085612029565b5b92915050565b600061209782611aab565b91506120a283611aab565b92508282019050808211156120ba576120b9612029565b5b92915050565b60008190508160005260206000209050919050565b60006020601f8301049050919050565b600082821b905092915050565b6000600883026121227fffffffffffffffffffffffffffffffffffffffffffffffffffffffffffffffff826120e5565b61212c86836120e5565b95508019841693508086168417925050509392505050565b6000819050919050565b600061216961216461215f84611aab565b612144565b611aab565b9050919050565b6000819050919050565b6121838361214e565b61219761218f82612170565b8484546120f2565b825550505050565b600090565b6121ac61219f565b6121b781848461217a565b505050565b5b818110156121db576121d06000826121a4565b6001810190506121bd565b5050565b601f821115612220576121f1816120c0565b6121fa846120d5565b81016020851015612209578190505b61221d612215856120d5565b8301826121bc565b50505b505050565b600082821c905092915050565b600061224360001984600802612225565b1980831691505092915050565b600061225c8383612232565b9150826002028217905092915050565b61227582611b38565b67ffffffffffffffff81111561228e5761228d611d90565b5b6122988254611ff8565b6122a38282856121df565b600060209050601f8311600181146122d657600084156122c4578287015190505b6122ce8582612250565b865550612336565b601f1984166122e4866120c0565b60005b8281101561230c578489015182556001820191506020850194506020810190506122e7565b868310156123295784890151612325601f891682612232565b8355505b6001600288020188555050505b505050505050565b7f4e487b7100000000000000000000000000000000000000000000000000000000600052603260045260246000fd5b600061237882611aab565b91507fffffffffffffffffffffffffffffffffffffffffffffffffffffffffffffffff82036123aa576123a9612029565b5b600182019050919050565b7f4e487b7100000000000000000000000000000000000000000000000000000000600052603160045260246000fdfea26469706673582212203c191997dce18daa66f2b33143b9c106887891f423a0689ea3b904dab7dce88964736f6c63430008110033",
  "immutableReferences": {},
  "source": "// SPDX-License-Identifier: UNLICENSED \n\npragma solidity ^0.8.17;\n\ncontract Agent {\n    \n    struct patient {\n        string name;\n        uint age;\n        address[] doctorAccessList;\n        uint[] diagnosis;\n        string record;\n    }\n    \n    struct doctor {\n        string name;\n        uint age;\n        address[] patientAccessList;\n    }\n\n    uint creditPool;\n\n    address[] public patientList;\n    address[] public doctorList;\n\n    mapping (address => patient) patientInfo;\n    mapping (address => doctor) doctorInfo;\n    mapping (address => address) Empty;\n    // might not be necessary\n    mapping (address => string) patientRecords;\n    \n\n\n    function add_agent(string memory _name, uint _age, uint _designation, string memory _hash) public returns(string memory){\n        address addr = msg.sender;\n        \n        if(_designation == 0){\n            patient memory p;\n            p.name = _name;\n            p.age = _age;\n            p.record = _hash;\n            patientInfo[msg.sender] = p;\n            patientList.push(addr);\n            return _name;\n        }\n       else if (_designation == 1){\n            doctorInfo[addr].name = _name;\n            doctorInfo[addr].age = _age;\n            doctorList.push(addr);\n            return _name;\n       }\n       else{\n           revert();\n       }\n    }\n\n\n    function get_patient(address addr) view public returns (string memory , uint, uint[] memory , address, string memory ){\n        // if(keccak256(patientInfo[addr].name) == keccak256(\"\"))revert();\n        return (patientInfo[addr].name, patientInfo[addr].age, patientInfo[addr].diagnosis, Empty[addr], patientInfo[addr].record);\n    }\n\n    function get_doctor(address addr) view public returns (string memory , uint){\n        // if(keccak256(doctorInfo[addr].name)==keccak256(\"\"))revert();\n        return (doctorInfo[addr].name, doctorInfo[addr].age);\n    }\n    function get_patient_doctor_name(address paddr, address daddr) view public returns (string memory , string memory ){\n        return (patientInfo[paddr].name,doctorInfo[daddr].name);\n    }\n\n    function permit_access(address addr) payable public {\n        require(msg.value == 2 ether);\n\n        creditPool += 2;\n        \n        doctorInfo[addr].patientAccessList.push(msg.sender);\n        patientInfo[msg.sender].doctorAccessList.push(addr);\n        \n    }\n\n\n    //must be called by doctor\n    function insurance_claim(address paddr, uint _diagnosis, string memory  _hash) public {\n        bool patientFound = false;\n        for(uint i = 0;i<doctorInfo[msg.sender].patientAccessList.length;i++){\n            if(doctorInfo[msg.sender].patientAccessList[i]==paddr){\n                payable(msg.sender).transfer(2 ether);\n                creditPool -= 2;\n                patientFound = true;\n                \n            }\n            \n        }\n        if(patientFound==true){\n            set_hash(paddr, _hash);\n            remove_patient(paddr, msg.sender);\n        }else {\n            revert();\n        }\n\n        bool DiagnosisFound = false;\n        for(uint j = 0; j < patientInfo[paddr].diagnosis.length;j++){\n            if(patientInfo[paddr].diagnosis[j] == _diagnosis)DiagnosisFound = true;\n        }\n    }\n\n    function remove_element_in_array(address[] storage Array, address addr) internal \n    {\n        bool check = false;\n        uint del_index = 0;\n        for(uint i = 0; i<Array.length; i++){\n            if(Array[i] == addr){\n                check = true;\n                del_index = i;\n            }\n        }\n        if(!check) revert();\n        else{\n            if(Array.length == 1){\n                delete Array[del_index];\n            }\n            else {\n                Array[del_index] = Array[Array.length - 1];\n                delete Array[Array.length - 1];\n\n            }\n            Array.pop();\n        }\n    }\n\n    function remove_patient(address paddr, address daddr) public {\n        remove_element_in_array(doctorInfo[daddr].patientAccessList, paddr);\n        remove_element_in_array(patientInfo[paddr].doctorAccessList, daddr);\n    }\n    \n    function get_accessed_doctorlist_for_patient(address addr) public view returns (address[] memory )\n    { \n        address[] storage doctoraddr = patientInfo[addr].doctorAccessList;\n        return doctoraddr;\n    }\n    function get_accessed_patientlist_for_doctor(address addr) public view returns (address[] memory )\n    {\n        return doctorInfo[addr].patientAccessList;\n    }\n\n    \n    function revoke_access(address daddr) public payable{\n        remove_patient(msg.sender,daddr);\n        payable(msg.sender).transfer(2 ether);\n        creditPool -= 2;\n    }\n\n    function get_patient_list() public view returns(address[] memory ){\n        return patientList;\n    }\n\n    function get_doctor_list() public view returns(address[] memory ){\n        return doctorList;\n    }\n\n    function get_hash(address paddr) public view returns(string memory ){\n        return patientInfo[paddr].record;\n    }\n\n    function set_hash(address paddr, string memory _hash) internal {\n        patientInfo[paddr].record = _hash;\n    }\n\n}\n\n",
  "sourcePath": "C:\\Users\\agra\\Desktop\\swaschain\\swaaschain\\contracts\\Agent.sol",
  "compiler": {
    "name": "solc",
    "version": "0.8.17+commit.8df45f5f.Emscripten.clang"
  },
  "schemaVersion": "3.4.15",
  "updatedAt": "2023-08-20T05:33:55.117Z",
  "networkType": "ethereum",
  "devdoc": {
    "kind": "dev",
    "methods": {},
    "version": 1
  },
  "userdoc": {
    "kind": "user",
    "methods": {},
    "version": 1
  }
}